:100000000200C70200000000000000020000000023
:1000100000000002000000000000000200000000DC
:0E0020000000000200000000000000020000CE
:10002E00C2A0758606E5AA20E70280F9758600E56E
:10003E00AA20E70280F97804E586088002C333D847
:10004E00FCF580758600E5AA20E70280F97904E5C3
:0E005E0086098002C313D9FCF84280D2A0228A
:0E006C0075990085089920990280FBC299229F
:08007A00E493F608A3D9F92272
:10008200D3E5D592E1F5D5D3E5D592E0F5D5D3E523
:10009200D592E4F5D5D3E5D592E3F5D5D3E5D5925E
:0B00A200E7F5D5D3E5D592E6F5D522B1
:1000AD00D2AC759850758780758920D2CCD2CDD2BF
:0A00BD00AF75CBFF75CAF0D2CA225E
:1000C700758180118211ADD2A0D2A0112E85800832
:0F00D700116C7E027F9DDFFEDEFC0080EC80FE60
:00000001FF
