:1000000002003602000000000000000200000000B4
:1000100000000002000000000000000200000000DC
:0E0020000000000200000000000000020000CE
:08002E00E493F608A3D9F922BE
:10003600758180750807750900750A007801E5085D
:10004600088002C333D8FCF97801E928F98501084C
:10005600C3E994FF4003750801D3E5089480401D69
:1000660074012509F5097400350AF50A7801E508D1
:10007600088002C333D8FCF5080508800D7801E531
:1000860008088002C333D8FCF508E509450A700361
:100096008508807401650970047400650A7003851B
:1000A60008907402650970047400650A7003850877
:1000B600A07403650970047400650A70098508B0A8
:1000C600750900750A007D047E2B7F9DDFFEDEFC30
:0600D600DDFA014280FE8C
:00000001FF
