:1000000002053F02000000000000000200000000A6
:1000100000000002000000000000000200000000DC
:0E0020000000000200000000000000020000CE
:10002E00854EA0E54630E204C2928002D292D2956D
:03003E00C2952246
:100041007E027F9DDFFEDEFC00E54D54F0F54E1192
:100051002E7804E54D088002C333D8FCF54E112EED
:01006100227C
:10006200BD000BB90029E88CF084F8ACF022E4CD95
:10007200FF75F008E828F8E933F9ED33FDE99CED66
:100082009F4005FDE99CF908D5F0E9E4C9FC22ECA2
:10009200FFF5F0E98420D21CF9ACF075F008E828ED
:1000A200F8EC33FC40079F5006D5F0F222C39FFCC8
:0500B20008D5F0EA2270
:0D00B700C3E54692E2F546854C4D1141220D
:1000C400803C75F008758200E828F8E933F9CA33F2
:1000D400CACB33CBC58233C5829CEA9DEB9EE582B5
:1000E4009F400CF582E99CF9EA9DFAEB9EFB08D54A
:1000F400F0D6E4C9FCE4CAFDE4CBFEAF8222EF6093
:100104000280BFEE6002805BED6002802DEB8CF01C
:1001140084C8C9CAFBE5F0CCFE7F18E828F8E933A7
:10012400F9EA33FAEB33FBEC33FC10D7039E4004BB
:10013400EC9EFC08DFE5E4FEFD227F18E828F8E9E0
:1001440033F9EA33FAEB33FBCE33CE10D7059CEE0A
:100154009D4007EB9CFBEE9DFE08DFE0E4CEFDE452
:10016400CBFC2275F010E828F8E933F9EA33FACB2E
:1001740033CBCF33CF10D7079CEB9DEF9E400AEAD9
:100184009CFAEB9DFBEF9EFF08D5F0DAE4CAFCE491
:06019400CBFDE4CFFE22CA
:0D019A00D3E54692E2F546854C4D11412219
:1001A700EF88F0A4CB8CF0A42BFBEE89F0A42BFBFB
:1001B7008DF0EAA42BFBED89F0A4CAAFF08CF0A474
:1001C7002ACB3F25F0FAEE88F0A42BCA35F0FBECDA
:1001D70089F0A4F9AEF0EC88F0A4C8C5F029CA3EAE
:0F01E700F9E43BFBEDA42AC935F0FAE43BFB2217
:0601F600754C01319A2254
:1001FC00C2D5EF30E70FB2D5E4C39CFCE49DFDE41F
:10020C009EFEE49FFFEB30E717B2D51202321200CC
:10021C00C4E4C39CFCE49DFDE49EFEE49FFF8003CC
:10022C001200C430D50DE4C398F8E499F9E49AFAB5
:05023C00E49BFB2222FF
:10024100754B00E52F254BF88601E9600DE52F255B
:0B0251004BF8864C11B7054B80E922EA
:10025C00C2D5ED30E709B2D5E4C39CFCE49DFDE9C1
:10026C0030E715B2D5E4C398F8E499F9120062C3EB
:10027C00E49CFCE49DFD800312006230D507C3E4CE
:06028C0098F8E499F92244
:10029200851C20851D21740A651C70047400651D6F
:1002A2007008E51B6401700280167464651C70049A
:1002B2007400651D7008E51B6402700280028002F2
:1002C200051B851B1EE4F51FD3E51E940074006414
:1002D20080F8E51F648098404B7C0A7D00A820A925
:1002E20021515CA804A90585002285012374C22539
:1002F2001EF54C319A74332522F8864C11B7E5224B
:1003020045236001227C0A7D00A820A921515C8539
:100312000020850121C3E51E9401F51EE51F94000E
:05032200F51F80A4227C
:10032700853D8A85308CD28C751C00751D00C3E510
:100337001C9531E5326480F8E51D648098501520DE
:100347008D0280FBC28D7401251CF51C7400351DC0
:05035700F51D80DA2213
:08035C00E493F608A3D9F9228D
:10036400754C02319A754C28319A754C0F319A7537
:070374004C80319A31F622A2
:10037B00851E23851C2D851D2E751FFF7520FF7572
:10038B0021007522007C0A7D00A82DA92E515CA8A6
:10039B0004A9058500218501227C0A7D00A82DA9D1
:1003AB002E515C85002D85012E7401251FF51F74C0
:1003BB00003520F5207424251FF874332521F9E727
:1003CB00F6D3E52D940074006480F8E52E648098D4
:1003DB0050B3754900754A00C3E51F94007400645F
:1003EB0080F8E520648098403274282549F87424FD
:1003FB00251FF9E7F67424251FF8A923E6F7052333
:10040B00C3E51F9401F51FE5209400F52074012529
:10041B0049F5497400354AF54A80BD74282549F8D9
:07042B007600A823760022F1
:10043200438901A840A941E54133E495E0FAFB7CF8
:10044200E87D037E0075070031A785001C85011D2C
:1004520085021E85031FA802A903EB33E495E0FA87
:10046200FB850031850132E933E495E0FAFBAB010B
:10047200AA0078007900C3E51C98F8E51D99F9E512
:100482001E9AFAE51F9BFBC374FF98F874FF99F953
:1004920074009AFA74009BFB85001C85011D85027D
:1004A2001E85031FA801A902AA03EB33E495E0FB12
:1004B2008500307C007D017E00750700A81CA91D07
:1004C200AA1EAB1F31FCA804A905AA06AB0785002A
:0204D2003D22C9
:1004D40085471C85481D31F6754C80319A752F115E
:1004E4005141754C2011B7752F155141754C201190
:1004F400B7752F0C5141754CC0319A752F4251413B
:10050400752F085141751B007C0A7D00A81CA91D8C
:10051400515C85001C85011D051BD3E89400740003
:0F0524006480FAE964809A50DF754C0C319A229A
:0C053300758920758DF5759850D28E22C8
:10053F007581801205C37164B13385471985481AD7
:10054F0085471C85481D751E11717B853E1C853F97
:10055F001D751E15717B85401C85411D751E0C7107
:10056F007B85191C851A1D751E08717B91D49132DC
:10057F00D3E519953EE53F6480F8E51A64809850FD
:10058F001885191C851A1D5192712774012519F5AB
:0B059F00197400351AF51A80D780FE91
:0E05C300783079197582AA75830512035C22BF
:0105AA000050
:0205AB0000004E
:0A05AD003031323334353637383937
:0105B7000043
:0205B800E70357
:0205BA0001003E
:0405BC0020202000DB
:0105C00080BA
:0205C100000038
:00000001FF
