:1000000002013202000000000000000200000000B7
:1000100000000002000000000000000200000000DC
:0E0020000000000200000000000000020000CE
:10002E007E217F6BDFFEDEFC008518A0E53030E21E
:10003E0004C2928002D2927E047F3CDFFEDEFC0080
:0E004E00D2957E047F3CDFFEDEFC00C29522D0
:10005C00E51754F0F518112E7804E517088002C343
:08006C0033D8FCF518112E2217
:0F0074000531C3E53092E2F530851617115C2295
:0D008300D3E53092E2F530851617115C22AE
:090090007531007516011183227F
:10009900751500E5142515F88601E96018E514259C
:1000A90015F8861611740515E53164107005751675
:0600B900C0118380DE226D
:0D00BF00C29985149920990280FBC29922F4
:0800CC00E493F608A3D9F92220
:1000D400751628118375160F1183751680118311F7
:0200E400902268
:1000E6007508BF750900750A14750BFF750CFF7549
:1000F6000D00750EFF750FFF75100075985075870A
:080106008075884075892022F4
:08010E001190851114119922D2
:10011600751200A8118613E513601085131411BF1C
:0C0126000512E5112512F8861380EC226A
:1001320075818012017B7590FF75160211837E21F5
:100142007F6BDFFEDEFC0011D4751132310E438766
:1001520080758DFB758BFB11E67D027E457F3DDF51
:0C016200FEDEFCDDFA751137311680FE60
:0E017B007830790D75826E7583011200CC22EA
:01016E008010
:01016F00008F
:050170006269626100FC
:0601750053746172740076
:00000001FF
