:100000000201610200000000000000020000000088
:1000100000000002000000000000000200000000DC
:0E0020000000000200000000000000020000CE
:10002E008513A0E54330E204C2928002D292D295AB
:03003E00C2952246
:100041007E027F9DDFFEDEFC00E51254F0F5131108
:100051002E7804E512088002C333D8FCF513112E63
:01006100227C
:0D006200C3E54392E2F543851112114122DE
:0D006F00D3E54392E2F543851112114122C1
:06007C00751101116F2255
:10008200751000E50F2510F88601E9600DE50F25D2
:0B00920010F886111162051080E922B1
:10009D00E88CF0A4AFF0C88DF0A42FC98CF0A42982
:0200AD00F92236
:0300AF00A89922EB
:0800B200117C850E0F11822262
:1000BA00751102116F751128116F75110F116F7576
:0700CA001180116F117C226F
:0800D100E493F608A3D9F9221B
:1000D900750900750A00750B007EA37F1EDFFEDE21
:1000E900FC00D3E54392E0F543117CE54330E05948
:1000F90030985411AF85000DC3E89430F985010C8F
:10010900C3E994004032D3E50C9409502B050985C5
:100119000D111162D3E50995084008750E3011B229
:10012900750900A80AA90B7C0A7D00119DE50C2818
:10013900F50AE439F50B800DE50D642070028005A0
:0C014900750E3011B2C29880A201EB22AA
:0C015500758920758DF5759850D28E22AA
:1001610075818012018C11BA315575080311D98539
:07017100004185014280FE00
:0E018C00783079147582787583011200D122C3
:100178004572726F722C2074727920616761696EA2
:010188000076
:02018900E7038A
:01018B0080F3
:00000001FF
